:100000000C94B3000C94D4000C94D4000C94D40041
:100010000C94D4000C9461030C94D4000C94D40080
:100020000C94D4000C94D4000C94D4000C94D40000
:100030000C94D4000C94D4000C94D4000C94D400F0
:100040000C94D4000C94D4000C94D4000C94D400E0
:100050000C94D4000C94D4000C94D4000C94D400D0
:100060000C94D4000C94D4000C94D4000C94D400C0
:100070000C94D4000C94D4000C94D4000C94D400B0
:100080000C94D4000C94D4000C94D4000C94D400A0
:100090000C94D4000C94D4000C94D4000C94D40090
:1000A0000C94D4000C94D4000C94D4000C94D40080
:1000B0000C94D4000C94D4000C94D4000C94D40070
:1000C0000C94D4000C94D4000C94D4000C948803A9
:1000D0000C94D4000C94D4000C94D4000C94D40050
:1000E0000C94D40007634236B79BD8A71A396856D8
:1000F00018AEBAAB558C1D3CB7CC5763BD6DEDFD4A
:10010000753EF6177231BF000000803F0800000006
:10011000BE922449123EABAAAA2ABECDCCCC4C3EFC
:1001200000000080BEABAAAAAA3E00000000BF00EB
:100130000000803F0000000000084178D3BB4387E7
:10014000D1133D190E3CC3BD4282AD2B3E68EC82FB
:1001500076BED98FE1A93E4C80EFFFBE01C4FF7F80
:100160003F000000000011241FBECFEFD1E2DEBF30
:10017000CDBF00E00CBF13E0A0E0B2E0ECE0FEE297
:1001800000E00BBF02C007900D92A831B107D9F76C
:1001900015E0A8E1B3E001C01D92AD30B107E1F771
:1001A0000E94DD0B0C9404170C940000259A2D9AE4
:1001B0000895269A2E9A0895279A2F9A0895E1E88D
:1001C000F0E010828CEF8093850081E080938400C2
:1001D00093E0909389008FEF8093880090938B0039
:1001E00080938A0090938D0080938C009093870079
:1001F000809386008BEA80938000109282008CE0CE
:1002000080830895259A2D9A269A2E9A279A2F9AB6
:1002100008951092890090E0A0E0B0E0BC01CD010B
:100220000E94C11120E030E040E150E40E94D30F71
:1002300020E030E048EA51E40E94AC0E0E94030D39
:1002400060938800089510928B0090E0A0E0B0E0E9
:10025000BC01CD010E94C11120E030E040E150E43A
:100260000E94D30F20E030E048EA51E40E94AC0E37
:100270000E94030D60938A00089510928D0090E013
:10028000A0E0B0E0BC01CD010E94C11120E030E04F
:1002900040E150E40E94D30F20E030E048EA51E40E
:1002A0000E94AC0E0E94030D60938C00089583E0C1
:1002B000809389008FEF80938800089583E0809376
:1002C0008B008FEF80938A00089583E080938D00E8
:1002D0008FEF80938C000895AF92BF92CF92DF9200
:1002E000EF92FF920F931F938CE80E940901609197
:1002F000000270910102882777FD8095982F0E9457
:100300000F115B016C0120E030E04AE753E40E94EA
:10031000D90E7B018C0120E030E040E85FE30E94D1
:10032000DF1088231CF461E070E024C0C801B7012D
:1003300020E03FEF4FE757E40E947F101816B4F417
:10034000C601B50120E030E040E251E40E94D90E40
:100350000E94030D89E190E005C0FC013197F1F79F
:100360006150704061157105C1F707C0C801B70140
:100370000E94030DCB010197F1F71F910F91FF90A0
:10038000EF90DF90CF90BF90AF900895AF92BF9263
:10039000CF92DF92EF92FF920F931F9386E90E9414
:1003A00009018AE50E94090160910202709103022D
:1003B000882777FD8095982F0E940F115B016C01B3
:1003C00020E030E04AE753E40E94D90E7B018C0123
:1003D00020E030E040E85FE30E94DF1088231CF457
:1003E00061E070E024C0C801B70120E03FEF4FE7B3
:1003F00057E40E947F101816B4F4C601B50120E03E
:1004000030E040E251E40E94D90E0E94030D89E1E0
:1004100090E005C0FC013197F1F761507040611523
:100420007105C1F707C0C801B7010E94030DCB01D8
:100430000197F1F71F910F91FF90EF90DF90CF9010
:10044000BF90AF900895CF93DF931092FD04109268
:10045000FC04C9E1D0E01DC089E60E94230188EBBD
:100460009BE0FE013197F1F70197D9F785EA0E94E9
:10047000230188EB9BE0FE013197F1F70197D9F753
:100480008091FC049091FD0401969093FD0480936B
:10049000FC048091FC049091FD040297ECF2DF9142
:1004A000CF910895F894259A2D9A269A2E9A279AF4
:1004B0002F9A0E94DF007894089580910A0290910B
:1004C0000B02089580910402909105020895809195
:1004D000B6049091B70408958091B2049091B3044A
:1004E0000895809106029091070201969093070269
:1004F00080930602109209021092080210920D02D7
:1005000010920C02109205021092040280910A02CD
:1005100090910B02892B39F481E090E090930B02CB
:1005200080930A02089510920B0210920A02089515
:1005300040E050E020910602309107028091AC0427
:100540009091AD042817390714F041E050E0CA013A
:10055000089520910802309109028091AE04909193
:10056000AF04281739071CF420E030E008C081E010
:1005700090E090930D0280930C0221E030E0C901DD
:100580000895E091B804F091B904EE0FFF1FE45E06
:10059000FC4F808191810895E091B804F091B904F5
:1005A000EE0FFF1FEC51FC4F808191810895409127
:1005B000B8045091B904FA01EE0FFF1FEC51FC4F43
:1005C000809108029091090220813181820F931F4E
:1005D00090930902809308024F5F5F4F5093B904D4
:1005E0004093B8040895AF92BF92CF92DF92EF92FA
:1005F000FF920F931F93AA2797FDA095BA2FBC01D6
:10060000CD010E940F115B016C0120E030E04AE750
:1006100053E40E94D90E7B018C0120E030E040E8D9
:100620005FE30E94DF1088231CF461E070E024C0C7
:10063000C801B70120E03FEF4FE757E40E947F1069
:100640001816B4F4C601B50120E030E040E251E4F0
:100650000E94D90E0E94030D89E190E005C0FC01C3
:100660003197F1F76150704061157105C1F707C00E
:10067000C801B7010E94030DCB010197F1F71F914B
:100680000F91FF90EF90DF90CF90BF90AF900895C3
:100690001092B7041092B6040895809104029091CC
:1006A000050201969093050280930402089510922A
:1006B0001B0310921A03089580911A0390911B0353
:1006C00008951F920F920FB60F9211248F939F934C
:1006D00080911A0390911B03019690931B038093C2
:1006E0001A039F918F910F900FBE0F901F90189536
:1006F000E1EDF0E010821092D00086E08093D2000D
:100700008FE58093D4001092D50088E98083089506
:100710001F920F920FB60F920BB60F9211242F93C8
:100720003F934F938F939F93EF93FF934091D60006
:10073000409303054093D60081E090E0909300053C
:100740008093FF04842F80538A3008F061C0809129
:10075000B4049091B504009749F4E091B004F0918D
:10076000B104EE0FFF1FE45EFC4F0BC0813091051A
:10077000E9F4E091B004F091B104EE0FFF1FEC51E9
:10078000FC4F808191819C01220F331F220F331F68
:10079000220F331F880F991F280F391F842F90E0D5
:1007A000C097820F931F9183808332C0823091055E
:1007B000B9F48091AC049091AD049C01F3E0220F58
:1007C000331FFA95E1F7880F991F280F391F240F5F
:1007D000311D205330403093AD042093AC0418C039
:1007E0000397B1F48091AE049091AF049C01F3E0C3
:1007F000220F331FFA95E1F7880F991F280F391F31
:10080000240F311D205330403093AF042093AE04A9
:100810004136E9F4E091B004F091B1043196F093DF
:10082000B104E093B0048091B4049091B5040097B2
:1008300029F4EE0FFF1FE45EFC4F06C00197D9F5C7
:10084000EE0FFF1FEC51FC4F1182108234C0423674
:10085000B1F41092B1041092B0048091B40490915C
:10086000B50401969093B5048093B404049719F5E8
:1008700081E090E09093B3048093B2041CC04A36A8
:1008800019F482E090E013C04C3619F481E090E056
:100890000EC0493619F483E090E009C04B3619F4D4
:1008A00084E090E004C0443631F485E090E0909319
:1008B000B7048093B604FF91EF919F918F914F9170
:1008C0003F912F910F900BBE0F900FBE0F901F9076
:1008D0001895F89410BA11BA1092070110920801F5
:1008E000E1EDF0E010821092D00086E08093D2001B
:1008F0008FE58093D4001092D50088E980837894A6
:10090000089581B18F6081B982B1807F82B9EAE0B8
:10091000F1E0808188618083EBE0F1E08081886193
:100920008083089580E18DBB1092690082E08093FE
:100930006A00089592B1907F8F70892B82B90895D3
:1009400082B1807F866082B9089582B1807F89609C
:1009500082B9089582B1807F856082B9089582B19D
:10096000807F8A6082B9089582B1807F846082B975
:10097000089582B1807F826082B9089582B1807FBC
:10098000816082B9089582B1807F886082B90895BC
:1009900082B1807F82B90895E1E2F1E010829FEF99
:1009A0009093250181E08093240110922901909376
:1009B000280110922B0190932A0110922D019093FF
:1009C0002C0189EA809320018BE080830895809335
:1009D000280160932A0108958F3F910514F08FEF4D
:1009E00090E08093280108958F3F910514F08FEFD8
:1009F00090E080932A0108950E94090180E395E721
:100A000029E130E0F9013197F1F70197D9F708951D
:100A10000E94230180E395E729E130E0F901319755
:100A2000F1F70197D9F708950E943D0180E395E71A
:100A300029E130E0F9013197F1F70197D9F70895ED
:100A400010BA11BA1092070110920801089510BA55
:100A500011BA10920701109208010895EAE7F0E038
:100A6000108210927B0080E280937C0080E880BF3F
:100A700086E880830895982F883018F088E0809366
:100A80007B009770906290937C0080917A008064E4
:100A900080937A0080917A0084FFFCCF8091790066
:100AA00090917A00906190937A0010927B00089563
:100AB00010BA11BA8FE081B912B888E180930A01A7
:100AC00080930B018FEF87B918B8109204018093BF
:100AD0000501089510BA11BA8FE081B912B888E102
:100AE00080930A0180930B018FEF87B918B8109299
:100AF00004018093050108958AEF90E0FC0131978D
:100B0000F1F74098419840E348B9429A22EE34E028
:100B1000F9013197F1F74298FC013197F1F74098CC
:100B2000419848B9429AF9013197F1F74298FC018E
:100B30003197F1F74098419848B9429AF9013197B5
:100B4000F1F742980197F1F74098419880E288B90F
:100B5000429AC9010197F1F74298089598B19F70A0
:100B600098B928B1982F907F922B98B940984198C6
:100B7000429A22EE34E0F9013197F1F7429898B1A8
:100B80009F7098B998B18295807F982B98B94098BA
:100B90004198429AC9010197F1F7429808958AEF66
:100BA00090E00197F1F788E20E94AE0581E00E9493
:100BB000AE0586E00E94AE058EE00E94AE0580E89C
:100BC0000E94AE050895F89481B18F6081B982B119
:100BD000807F82B92AE031E0F901808188618083D9
:100BE000ABE0B1E08C9188618C9310BA11BA10928D
:100BF000070110920801EAE7F0E0108210927B00F2
:100C000080E280937C0080E880BF86E88083E1E218
:100C1000F1E010829FEF9093250181E08093240101
:100C2000109229019093280110922B0190932A0190
:100C300010922D0190932C0189EA809320018BE082
:100C4000808310BA11BA8FE081B912B888E1F90136
:100C500080838C9397B918B8109204019093050182
:100C60000E94CF050E947C053B9A18B880E18DBB9D
:100C70001092690082E080936A0078940E94520288
:100C8000F89410BA11BA1092070110920801E1ED20
:100C9000F0E010821092D00086E08093D2008FE5C1
:100CA0008093D4001092D50088E9808378940895C9
:100CB00098B19F7098B928B1982F907F922B98B9CE
:100CC000409A4198429A22EE34E0F9013197F1F7C7
:100CD000429898B19F7098B998B18295807F982B6F
:100CE00098B9409A4198429AC9010197F1F7429800
:100CF000089580E80E94AE050895CF93DF93EC013C
:100D000003C00E945806219688818823D1F7DF917D
:100D1000CF910895823069F0833018F48130A9F4BE
:100D200005C0833049F0843081F40BC0862F815890
:100D300005C0862F815402C0862F8D560E94AE05B5
:100D40000895862F8D520E94AE0508950F931F932C
:100D5000CF93DF938A01E901882311F0662319F408
:100D60000E94790602C00E948A06C530D10571F43E
:100D7000C80160E177E20E942F14CB01C0969093E6
:100D8000F9048093F8040E94580605C0C430D105C8
:100D900011F080E016C0C80168EE73E00E942F14C5
:100DA000CB016093FA049093FB046AE070E00E9428
:100DB0002F14C09690930905809308050E94580649
:100DC00081E0C330D10521F0813011F080E016C000
:100DD000C80164E670E00E942F14CB016093FA040E
:100DE0009093FB046AE070E00E942F14C0969093E9
:100DF0000505809304050E94580681E0C230D105A4
:100E000021F0813011F080E016C0C8016AE070E086
:100E10000E942F14CB016093FA049093FB046AE0C4
:100E200070E00E942F14C0969093020580930105F4
:100E30000E94580681E0C130D10511F0813061F483
:100E4000C8016AE070E00E942F14C09690930705D5
:100E5000809306050E94580626971CF085E40E94A0
:100E60005806DF91CF911F910F910895AC0181E059
:100E700061E024E030E00E94A6060895AC0182E023
:100E800061E024E030E00E94A60608953B9A18B87D
:100E9000089580E090E031E2232F2A95F1F7019642
:100EA0008A309105C9F7089588E088B980E090E01C
:100EB00031E2232F2A95F1F701968A309105C9F77F
:100EC000089518B880E090E031E2232F2A95F1F7D9
:100ED00001968A309105C9F708952091BE042160DA
:100EE0002093BE049093C3048093C204089520917C
:100EF000BE0422602093BE049093C5048093C40472
:100F000008952091BE0424602093BE049093C704EA
:100F10008093C60408952091BE0428602093BE04E7
:100F20009093C9048093C80408952091BE04206161
:100F30002093BE049093CB048093CA04089520911B
:100F4000BE0420622093BE049093CD048093CC0411
:100F500008952091BE0420642093BE049093CF0492
:100F60008093CE0408952091BE0420682093BE048F
:100F70009093D1048093D00408952091BF04216000
:100F80002093BF049093D3048093D20408951092C9
:100F9000BE048091BF048E7F8093BF0480E090E008
:100FA00008954091B8045091B904FA01EE0FFF1F63
:100FB000EC51FC4F8091080290910902208131810F
:100FC000820F931F90930902809308024F5F5F4F37
:100FD0005093B9044093B80408958F3F910514F0DD
:100FE0008FEF90E08093280108950E94F302089506
:100FF0000E94140508950E940805089582B1807F1B
:10100000896082B908958091060290910702019645
:101010009093070280930602109209021092080230
:1010200010920D0210920C0210920502109204020E
:1010300080910A0290910B02892B39F481E090E0B3
:1010400090930B0280930A02089510920B02109263
:101050000A0208950E94FC0408950E94FC04089569
:1010600082B1807F866082B9089580910402909158
:101070000502019690930502809304020895109250
:101080001B0310921A0308951092B7041092B6042D
:1010900008958F3F910514F08FEF90E080932A011F
:1010A000089582B1807F826082B908950E94080508
:1010B00008950E9414050895CF92DF92EF92FF9257
:1010C0000F931F93CF93DF9390910E02943009F406
:1010D000A1C1953060F4913009F489C19130D0F00C
:1010E000923009F48BC1933009F0D4C18DC197308F
:1010F00009F4A2C1983038F4953009F491C19630C2
:1011000009F0C8C193C1983009F49CC1993009F025
:10111000C1C1A1C16091BF0460FF6DC188E080932F
:101120000E02C090C604D090C704D092ED04C092C5
:10113000EC042091C2043091C3043093E70420935F
:10114000E604C091C404D091C504D093EB04C093CD
:10115000EA040091C8041091C9041093EF040093AD
:10116000EE04E091CA04F091CB04F093F104E09313
:10117000F0044091CC045091CD045093F30440937B
:10118000F204A091CE04B091CF04B093E904A093EF
:10119000E8048091D0049091D1049093F504809359
:1011A000F404E090D204F090D304F092F704E092BB
:1011B000F6042130310509F06DC1CD2809F007C1D1
:1011C000012B09F085C0CA01880F991F840F951F54
:1011D000262F2063C817D9070CF054C08EE690E084
:1011E0009093D5048093D4049093D7048093D6042D
:1011F0002093BF04E130F10559F481E990E0909328
:10120000D9048093D804822F80648093BF0433C0B4
:10121000E230F10551F481E990E09093DD04809390
:10122000DC048091C00481600BC0339761F481E9D4
:1012300090E09093E1048093E0048091C004846086
:101240008093C00418C080EA90E09093DB04809300
:10125000DA042091BF0420682093BF049093DF0438
:101260008093DE042091C0049093E3048093E20411
:101270002A602093C0048091E8049091E9040197CA
:1012800009F51CC01092D5041092D4041092D70412
:101290001092D6042093BF048091C0049091C104A1
:1012A00091609093C10420ED37E03093E5042093E2
:1012B000E40480638093C004119721F48091BF04FB
:1012C000886003C08091BF0484608093BF04E2C043
:1012D00080EA90E09093DB048093DA046068609386
:1012E000BF049093DF048093DE042091C0049093A8
:1012F000E3048093E20480E49FE19093E50480930B
:10130000E4042A612093C00481E0E816F104D9F4D2
:101310002F977CF4262F84E690E09093D504809359
:10132000D4041092D7041092D60428632093BF04EB
:101330000AC08091C004806E8093C0048091C10473
:1013400082608093C1048091F6049091F704892B08
:1013500009F0A0C08091EA049091EB048F309105D0
:1013600074F42091BF0484E690E09093D5048093B8
:10137000D4041092D7041092D60424630FC0209195
:10138000BF04246346976CF484E690E09093D50400
:101390008093D4049093D7048093D6042093BF0401
:1013A00079C01092D5041092D4041092D7041092F0
:1013B000D6042093BF042091C00480E49FE1909361
:1013C000E5048093E404206B2093C00463C0109272
:1013D000D5041092D4041092D7041092D604AB2BEB
:1013E00011F4646301C068636093BF0453C08091CB
:1013F000BE0487FF2DC010920E024CC08091BE0427
:1014000086FF26C081E044C08091BE0485FF20C0D5
:1014100082E03EC08091BE0484FF1AC083E038C0E1
:101420008091BE0483FF14C084E032C08091BE046A
:1014300082FF0EC085E02CC08091BE0481FF08C0F1
:1014400086E026C08091BE0480FF02C087E020C0F5
:1014500090930E021FC08091C1048C7F8093C104C1
:101460002091BF04217080EA90E09093DB04809388
:10147000DA0420682093BF049093DF048093DE0495
:101480009093E3048093E2048AE08093C00488E0B0
:1014900080930E029091BF0491FF07C082B1807FBC
:1014A000826082B99D7F9093BF049091BF0492FFA8
:1014B00007C082B1807F866082B99B7F9093BF0412
:1014C0009091BF0493FF07C082B1807F896082B989
:1014D000977F9093BF048091BF0484FF0BC08091DD
:1014E000D4049091D5040E94ED078091BF048F7EB3
:1014F0008093BF048091BF0485FF0BC08091D60408
:101500009091D7040E9449088091BF048F7D8093F9
:10151000BF048091BF0486FF0BC08091D8049091D6
:10152000D9040E942A088091BF048F7B8093BF0456
:101530008091BF0487FF0BC08091DA049091DB0497
:101540000E942D088091BF048F778093BF04809103
:10155000C00480FF0BC08091DC049091DD040E94E8
:10156000FB078091C0048E7F8093C0048091C004EB
:1015700081FF0BC08091DE049091DF040E94560829
:101580008091C0048D7F8093C0048091C00482FF4D
:101590000BC08091E0049091E1040E94F8078091D3
:1015A000C0048B7F8093C0048091C00483FF0BC074
:1015B0008091E2049091E3040E9459088091C00454
:1015C000877F8093C0048091C00484FF0BC080910A
:1015D000E4049091E5040E94F5078091C0048F7E99
:1015E0008093C0048091C00485FF07C010921B0344
:1015F00010921A038F7D8093C0048091C00486FFEF
:1016000007C01092B7041092B6048F7B8093C00479
:101610002091C00427FF0CC0809104029091050224
:10162000019690930502809304022F772093C004C3
:101630006091C10460FF1EC04091B8045091B9048C
:10164000FA01EE0FFF1FEC51FC4F809108029091C0
:10165000090220813181820F931F909309028093A8
:1016600008024F5F5F4F5093B9044093B8046E7FF8
:101670006093C1048091C10481FF2BC08091060258
:1016800090910702019690930702809306021092B0
:1016900009021092080210920D0210920C02109290
:1016A00005021092040280910A0290910B02892B8C
:1016B00039F481E090E090930B0280930A0204C019
:1016C00010920B0210920A028091C1048D7F8093C8
:1016D000C1041092BE048091BF048E7F8093BF042A
:1016E00081E090E0DF91CF911F910F91FF90EF90FB
:1016F000DF90CF90089581E090E09093C3048093B1
:10170000C2041092C5041092C4041092C70410922F
:10171000C6049093C9048093C8049093CB0480932B
:10172000CA0425E030E03093CD042093CC0410921D
:10173000CF041092CE048FEF8093BE043093D10477
:101740002093D0048091BF0481608093BF041092E5
:10175000D3041092D204089581E090E09093C304E2
:101760008093C2041092C5041092C4041092C7045E
:101770001092C6041092C9041092C8041092CB04AF
:101780001092CA0425E030E03093CD042093CC04BD
:101790001092CF041092CE048FEF8093BE0430934A
:1017A000D1042093D0048091BF0481608093BF0452
:1017B0001092D3041092D2040895CF93DF930E9425
:1017C000E3051092BE048091BF048E7F8093BF0416
:1017D0000E945C08C1E0D0E08091B2049091B30413
:1017E0002091BE049093C3048093C20480911A0395
:1017F00090911B0323602093BE049093C5048093B3
:10180000C40440E050E0209106023091070280912C
:10181000AC049091AD042817390714F041E050E072
:101820008091BE0484608093BE045093C7044093AB
:10183000C60420910802309109028091AE04909173
:10184000AF04281739071CF480E090E006C0D0935D
:101850000D02C0930C0281E090E02091BE049093B1
:10186000C9048093C804E091B804F091B904EE0F64
:10187000FF1FDF01A45EBC4F8D919C919093CB0420
:101880008093CA04EC51FC4F808191819093CD04E8
:101890008093CC0480910A0290910B029093CF0424
:1018A0008093CE048091B6049091B704286F209362
:1018B000BE049093D1048093D0042091040230910F
:1018C00005028091BF0481608093BF043093D304EC
:1018D0002093D2040E945C087FCFCF93DF93DC017A
:1018E0000D900020E9F71197A81BB90BAD014150ED
:1018F0005040EC01FC01EA0FFB1F20E030E008C083
:1019000098818081899390832F5F3F4F4150504051
:10191000319724173507A4F3DF91CF910895EF9203
:10192000FF920F931F93CF93DF938C017B019C0158
:1019300097FF04C022273327281B390BC0E0D0E0D3
:10194000F701EC0FFD1FC9016AE070E00E9443142B
:10195000805D80832196C9016AE070E00E94431493
:101960009B011616170664F317FF06C0F701EC0F6C
:10197000FD1F8DE280832196CE0DDF1D1882C701E9
:101980000E946D0CDF91CF911F910F91FF90EF900E
:10199000089590E0A0E0B0E0BC01CD010E94C1112B
:1019A0002FEE39EC43E95FE30E948D149B01AC01FB
:1019B00060E070E080E89FE30E94D30F2AE939EFEE
:1019C0004EE255E40E94D90E20E030E040E251E4BE
:1019D0000E94D90E0E946D11882777FD8095982F5F
:1019E0000E940F110E946D119B0183E06132780704
:1019F00010F020E233E0C90108958BE00E943B051E
:101A00000E94C90C0895EF92FF920F931F937B01E0
:101A10008C0120E030E040E05FE40E94AF108823BA
:101A20008CF0C801B70120E030E040E05FE40E94A4
:101A30007B0E0E946D119B01AC0120503040404054
:101A4000504806C0C801B7010E946D119B01AC014E
:101A5000B901CA011F910F91FF90EF900895A0E086
:101A6000B0E0E5E3FDE00C945614DC012B01FA0133
:101A70009C91923008F439C1EB018881823008F4DE
:101A800033C1943069F4843009F02FC111969C91D0
:101A900011978981981709F428C1AFE0B2E025C1F8
:101AA000843009F421C18230A9F4923009F01DC1BB
:101AB0009A01AD0188E0EA010990AE01E9010992BD
:101AC0009E018150C1F7E201898111969C91892381
:101AD000818308C1923009F407C112962D903C9081
:101AE0001397EB018A819B811496AD90BD90CD90A8
:101AF000DC901797EC80FD800E811F819101281BDF
:101B0000390BB90137FF04C066277727621B730BB7
:101B1000603271050CF061C0121613066CF53701C6
:101B20004801062E04C096948794779467940A948B
:101B3000D2F721E030E040E050E004C0220F331F34
:101B4000441F551F6A95D2F7215030404040504005
:101B50002E213F21402351232115310541055105F7
:101B600021F021E030E040E050E079018A01E628F0
:101B7000F728082919293CC0232BD1F1260E371E3E
:101B800035014601062E04C0969487947794679495
:101B90000A94D2F721E030E040E050E004C0220F88
:101BA000331F441F551F6A95D2F7215030404040E3
:101BB00050402A213B214C215D2121153105410551
:101BC000510521F021E030E040E050E059016A0188
:101BD000A628B728C828D9280BC0821593052CF051
:101BE0001C01AA24BB24650103C0EE24FF24870145
:101BF00011969C91D20111968C91981709F445C0C9
:101C0000992339F0A80197012A193B094C095D096C
:101C100006C0A60195012E193F09400B510B57FD37
:101C200008C01182338222822483358346835783FE
:101C30001DC081E081833382228288279927DC01BD
:101C4000821B930BA40BB50B84839583A683B78368
:101C50000DC0220F331F441F551F24833583468335
:101C60005783828193810197938382832481358175
:101C700046815781DA01C9010197A109B1098F5F36
:101C80009F4FAF4FBF4328F30BC091833382228213
:101C9000EA0CFB1C0C1D1D1DE482F58206831783D4
:101CA00083E08083248135814681578157FF1AC0A4
:101CB000C901AA2797FDA095BA2F81709070A070D6
:101CC000B0705695479537952795822B932BA42B6B
:101CD000B52B84839583A683B783828193810196F4
:101CE00093838283DF0101C0D201CD01CDB7DEB77E
:101CF000E2E10C947214A0E2B0E0E1E8FEE00C94A2
:101D0000621469837A838B839C832D833E834F8304
:101D10005887E9E0EE2EF12CEC0EFD1ECE01019667
:101D2000B7010E945E138E010F5E1F4FCE01059614
:101D3000B8010E945E138A8991E089278A8BC701C6
:101D4000B801AE01475E5F4F0E942F0D0E948912BD
:101D5000A096E6E00C947E14A0E2B0E0E2EBFEE098
:101D60000C94621469837A838B839C832D833E83D6
:101D70004F835887F9E0EF2EF12CEC0EFD1ECE01BB
:101D80000196B7010E945E138E010F5E1F4FCE01B8
:101D90000596B8010E945E13C701B801AE01475E07
:101DA0005F4F0E942F0D0E948912A096E6E00C94CE
:101DB0007E14A0E2B0E0EFEDFEE00C9456146983CF
:101DC0007A838B839C832D833E834F835887CE01F8
:101DD0000196BE01675F7F4F0E945E13CE0105969C
:101DE000BE016F5E7F4F0E945E139985923088F02E
:101DF00089898230C8F0943019F4823051F404C0DB
:101E0000843029F4923081F48FE092E0C6C09230A1
:101E100049F420E09A858A89981321E02A87CE0127
:101E20000996BBC0823049F420E09A858A899813CC
:101E300021E02A8BCE014196B0C02D843E844F8490
:101E400058886D887E888F88988CEE24FF248701BF
:101E5000AA24BB24650140E050E060E070E0E0E0CF
:101E6000F0E0C10181709070892BE9F0E60CF71C5D
:101E7000081D191D9A01AB012A0D3B1D4C1D5D1D4E
:101E800080E090E0A0E0B0E0E614F7040805190552
:101E900020F481E090E0A0E0B0E0BA01A901480F91
:101EA000591F6A1F7B1FAA0CBB1CCC1CDD1C97FE94
:101EB00008C081E090E0A0E0B0E0A82AB92ACA2AD0
:101EC000DB2A3196E032F10549F0660C771C881C5C
:101ED000991C5694479437942794C3CFFA85EA897E
:101EE0002B893C898B859C85280F391F2E5F3F4F9E
:101EF00017C0CA0181709070892B61F01695079503
:101F0000F794E79480E090E0A0E0B0E8E82AF92AAE
:101F10000A2B1B2B76956795579547952F5F3F4F5B
:101F200077FDE7CF0CC0440F551F661F771F17FDC5
:101F30004160EE0CFF1C001F111F2150304040304B
:101F400090E0590790E0690790E4790760F32B8FE0
:101F50003C8FDB01CA018F779070A070B070803425
:101F60009105A105B10561F447FD0AC0E114F10432
:101F70000105110529F0405C5F4F6F4F7F4F40789E
:101F80001A8EFE1711F081E08A8F4D8F5E8F6F8F52
:101F900078A383E0898FCE0149960E948912A0968A
:101FA000E2E10C947214A8E1B0E0E9EDFFE00C94DA
:101FB0005E1469837A838B839C832D833E834F8356
:101FC0005887B9E0EB2EF12CEC0EFD1ECE010196E8
:101FD000B7010E945E138E010F5E1F4FCE01059662
:101FE000B8010E945E132985223008F47EC0398929
:101FF000323010F4B8017CC08A859A8989278A8793
:10200000243011F0223031F4231709F06EC06FE054
:1020100072E06EC0343039F41D861E861F86188A21
:102020001C861B8604C0323021F484E08987B70106
:102030005FC02B853C858B899C89281B390B3C878D
:102040002B87ED84FE840F851889AD88BE88CF88E4
:10205000D88CEA14FB040C051D0540F4EE0CFF1CA3
:10206000001F111F215030403C872B8720E030E0BB
:1020700040E050E080E090E0A0E0B0E460E070E09C
:10208000EA14FB040C051D0540F0282B392B4A2BC4
:102090005B2BEA18FB080C091D09B695A7959795C7
:1020A0008795EE0CFF1C001F111F6F5F7F4F6F3174
:1020B000710531F7DA01C9018F779070A070B070A7
:1020C00080349105A105B10561F427FD0AC0E11432
:1020D000F1040105110529F0205C3F4F4F4F5F4F80
:1020E00020782D873E874F87588BBE01675F7F4FD3
:1020F000CB010E9489126896EAE00C947A14A8E158
:10210000B0E0E5E8F0E10C94621469837A838B8394
:102110009C832D833E834F83588789E0E82EF12CE2
:10212000EC0EFD1ECE010196B7010E945E138E01DA
:102130000F5E1F4FCE010596B8010E945E13898580
:10214000823040F08989823028F0C701B8010E94AE
:10215000D61301C08FEF6896E6E00C947E14A8E1D8
:10216000B0E0E5EBF0E10C94621469837A838B8331
:102170009C832D833E834F83588789E0E82EF12C82
:10218000EC0EFD1ECE010196B7010E945E138E017A
:102190000F5E1F4FCE010596B8010E945E13898520
:1021A000823040F08989823028F0C701B8010E944E
:1021B000D61301C08FEF6896E6E00C947E14A8E178
:1021C000B0E0E5EEF0E10C94621469837A838B83CE
:1021D0009C832D833E834F83588789E0E82EF12C22
:1021E000EC0EFD1ECE010196B7010E945E138E011A
:1021F0000F5E1F4FCE010596B8010E945E138985C0
:10220000823040F08989823028F0C701B8010E94ED
:10221000D61301C081E06896E6E00C947E14A8E035
:10222000B0E0E5E1F1E10C945F149B01AC0183E0C7
:102230008983DA01C9018827B7FD83959927AA27E1
:10224000BB27B82E211531054105510519F482E04F
:1022500089833AC08823A9F0203080E0380780E0E5
:10226000480780E8580729F460E070E080E09FECC0
:1022700030C0EE24FF248701E21AF30A040B150B89
:1022800002C079018A018EE1C82ED12CDC82CB827A
:10229000ED82FE820F831887C801B7010E943A12AF
:1022A00001971816190684F4082E04C0EE0CFF1CC2
:1022B000001F111F0A94D2F7ED82FE820F83188748
:1022C000C81AD90ADC82CB82BA82CE0101960E945A
:1022D00089122896E9E00C947B14ACE0B0E0E3E7C7
:1022E000F1E10C94661469837A838B839C83CE011D
:1022F0000196BE016B5F7F4F0E945E138D8182301D
:1023000061F1823050F1843021F48E81882351F1C3
:102310002EC02F81388537FD20C06E812F313105C9
:102320001CF06623F9F023C08EE190E0821B930B32
:1023300029853A854B855C8504C056954795379528
:1023400027958A95D2F76623B1F050954095309540
:1023500021953F4F4F4F5F4F0EC020E030E040E0EF
:1023600050E009C02FEF3FEF4FEF5FE704C020E0E0
:1023700030E040E050E8B901CA012C96E2E00C944C
:102380008214A8E0B0E0E7ECF1E10C945E147B016C
:102390008C01611571058105910519F482E089832D
:1023A00060C083E089838EE1C82ED12CDC82CB8291
:1023B000ED82FE820F831887C801B7010E943A128E
:1023C000FC013197F7FF3BC0222733272E1B3F0B21
:1023D00057016801022E04C0D694C794B794A794FD
:1023E0000A94D2F740E050E060E070E081E090E0D5
:1023F000A0E0B0E004C0880F991FAA1FBB1F2A9558
:10240000D2F70197A109B1098E219F21A023B12301
:102410000097A105B10521F041E050E060E070E0D7
:102420004A295B296C297D294D835E836F837887D8
:102430008EE190E08E1B9F0B9C838B8312C03097A4
:1024400081F00E2E04C0EE0CFF1C001F111F0A9419
:10245000D2F7ED82FE820F831887CE1ADF0ADC8264
:10246000CB821A82CE0101960E9489122896EAE058
:102470000C947A14EF92FF920F931F937B018C01BF
:1024800080E0E81680E0F80681E0080780E01807A1
:1024900088F48FEFE816F1040105110531F028F0FA
:1024A00088E090E0A0E0B0E017C080E090E0A0E01D
:1024B000B0E012C080E0E81680E0F80680E008078F
:1024C00081E0180728F088E190E0A0E0B0E004C0C7
:1024D00080E190E0A0E0B0E020E230E040E050E0B9
:1024E000281B390B4A0B5B0B04C016950795F79414
:1024F000E7948A95D2F7F701E95EFD4F8081281BAA
:10250000310941095109C9011F910F91FF90EF90C5
:102510000895DF92EF92FF920F931F93FC01E480E6
:10252000F58006811781D1808081823048F480E077
:1025300090E0A0E1B0E0E82AF92A0A2B1B2BA5C005
:10254000843009F49FC0823021F4EE24FF248701F7
:1025500005C0E114F1040105110519F4E0E0F0E013
:1025600096C0628173819FEF623879070CF05BC07F
:1025700022E83FEF261B370B2A3131052CF020E0F3
:1025800030E040E050E02AC0B801A701022E04C0AC
:1025900076956795579547950A94D2F781E090E034
:1025A000A0E0B0E004C0880F991FAA1FBB1F2A95A6
:1025B000D2F70197A109B1098E219F21A023B12350
:1025C0000097A105B10521F081E090E0A0E0B0E026
:1025D0009A01AB01282B392B4A2B5B2BDA01C9015D
:1025E0008F779070A070B07080349105A105B1050F
:1025F00039F427FF09C0205C3F4F4F4F5F4F04C0A5
:10260000215C3F4F4F4F5F4FE0E0F0E02030A0E013
:102610003A07A0E04A07A0E45A0710F0E1E0F0E032
:1026200079018A0127C06038710564F5FB01E15822
:10263000FF4FD801C7018F779070A070B0708034C1
:102640009105A105B10539F4E7FE0DC080E490E0E5
:10265000A0E0B0E004C08FE390E0A0E0B0E0E80EBE
:10266000F91E0A1F1B1F17FF05C016950795F79443
:10267000E794319687E016950795F794E7948A9545
:10268000D1F705C0EE24FF248701EFEFF0E06E2FB5
:10269000679566276795902F9F77D794DD24D79409
:1026A0008E2F8695492F462B582F5D29B701CA01D9
:1026B0001F910F91FF90EF90DF900895FC01DB01D7
:1026C000408151812281622F6F7770E0221F222783
:1026D000221F9381892F880F822B282F30E0991F8A
:1026E0009927991F11969C93119721153105A9F5EA
:1026F000411551056105710511F482E037C082E88A
:102700009FEF13969C938E9312979A01AB0167E00B
:10271000220F331F441F551F6A95D1F783E08C9316
:102720000DC0220F331F441F551F12968D919C918F
:102730001397019713969C938E931297203080E005
:10274000380780E0480780E4580758F314962D9323
:102750003D934D935C93179708952F3F310579F47E
:10276000411551056105710519F484E08C930895B4
:1027700064FF03C081E08C9312C01C9210C02F57DD
:10278000304013963C932E93129783E08C9387E00E
:10279000440F551F661F771F8A95D1F770641496F2
:1027A0004D935D936D937C93179708951F93DC0170
:1027B000FB019C91923008F447C08081823008F47C
:1027C00043C0943051F411961C91843099F5818165
:1027D000682F70E0611B71093FC0843021F0923096
:1027E00031F48230B9F18181882389F12DC01196AD
:1027F0001C9111978230F1F081811817D9F412964B
:102800002D913C911397828193818217930794F0C5
:1028100028173907BCF014968D919D910D90BC91AD
:10282000A02D2481358146815781281739074A0711
:102830005B0718F4112341F00AC082179307A4071D
:10284000B50740F4112319F061E070E005C06FEFA7
:102850007FEF02C060E070E0CB011F910895AA1BDA
:10286000BB1B51E107C0AA1FBB1FA617B70710F07B
:10287000A61BB70B881F991F5A95A9F780959095AD
:10288000BC01CD01089597FB092E07260AD077FDDC
:1028900004D0E5DF06D000201AF4709561957F4FD3
:1028A0000895F6F7909581959F4F08952F923F9246
:1028B0004F925F926F927F928F929F92AF92BF9250
:1028C000CF92DF92EF92FF920F931F93CF93DF93FC
:1028D000CDB7DEB7CA1BDB0B0FB6F894DEBF0FBE59
:1028E000CDBF19942A88398848885F846E847D8496
:1028F0008C849B84AA84B984C884DF80EE80FD80A8
:102900000C811B81AA81B981CE0FD11D0FB6F8941D
:10291000DEBF0FBECDBFED010895FA01EE0FFF1F20
:1029200030962105310599F16115710561F4803802
:10293000BFE39B0749F168949038810561F08038C6
:10294000BFEF9B0741F0992342F5FF3FE1053105B9
:10295000210511F1E8940894E795D901AA2329F4F7
:10296000AB2FBE2FF85FD0F310C0FF5F70F4A695B9
:10297000E0F7F73950F019F0FF3A38F49F779F935A
:102980000CD00F9007FC905808953EF049C060E0CD
:1029900070E080E89FE308954FE79F775F934F9340
:1029A0003F932F93D0D02F913F914F915F9101DAB8
:1029B00005C019F40EF02EC07DC032C061D0C8F33E
:1029C0009638C0F707F80F92E8942BE33AEA48EB01
:1029D0005FE738D10F920F920F924DB75EB70F920B
:1029E000F2D0E4EEF0E01FD04F915F91EF91FF91B4
:1029F000E595EE1FFF1F49F0FE57E0684427EE0FF4
:102A0000441FFA95E1F74195550B64D00F9007FEEE
:102A100058C0089597F99F6780E870E060E00895D6
:102A20009FEF80EC0895DF93CF931F930F93FF9256
:102A3000EF92DF927B018C01689405C0DA2EEF01E2
:102A4000FFD0FE01E894A5912591359145915591CE
:102A5000AEF3EF0159D1FE019701A801DA9479F79D
:102A6000DF90EF90FF900F911F91CF91DF9108952C
:102A700057FD9058440F551F59F05F3F71F047952F
:102A8000880F97FB991F61F09F3F79F08795089514
:102A9000121613061406551FF2CF4695F1DF08C033
:102AA000161617061806991FF1CF86957105610550
:102AB00008940895E894BB2766277727CB0197F9F8
:102AC00008959B01AC0160E070E080E89FE36BCA71
:102AD000A1CF6DC1D5DFE8F39923D9F3940F511D30
:102AE000BBF39150504094F059F0882332F0660FB8
:102AF000771F881F91505040C1F79E3F510544F702
:102B0000880F911D9695879597F908955F3FACF0D2
:102B1000983E9CF0BB27869577956795B79508F406
:102B2000B1609395C1F7BB0F58F711F460FFE8CF80
:102B30006F5F7F4F8F4F9F4FE3CFBDCF0EF037C1F9
:102B40006FCF689467CF9CDFC8F39923D1F3C6F3A6
:102B5000DF93CF931F930F93FF92C92FDD27882315
:102B60002AF02197660F771F881FDAF720E030E000
:102B700040E85FEB9FE3883920F0803E30F02196FB
:102B80008F77EAD8ECE0F1E003C0E6D8E9E3F1E0C2
:102B90004ADF8B01BE01EC01FB2E6F577109759561
:102BA000771F880B990B3BDB28E132E741E35FE3BA
:102BB00047D0AF2D9801AE01FF900F911F91CF919B
:102BC000DF91A2D010C1FA01DC01AA0FBB1F9B014B
:102BD000AC01BF5728F422273327442750781FC061
:102BE000B75188F4AB2F0024469537952795011CE3
:102BF000A395D2F3002069F0220F331F441FB39531
:102C0000DAF30DD078C861307105A0E88A07B946BB
:102C100030F49B01AC01662777278827907830969F
:102C200021F020833183428353830895CED028F04E
:102C3000D3D018F0952309F0EDCEF2CE11243BCF7E
:102C400017DFA0F3959FD1F3950F50E0551F629FBA
:102C5000F001729FBB27F00DB11D639FAA27F00DF5
:102C6000B11DAA1F649F6627B00DA11D661F829F1C
:102C70002227B00DA11D621F739FB00DA11D621F01
:102C8000839FA00D611D221F749F3327A00D611D1E
:102C9000231F849F600D211D822F762F6A2F112400
:102CA0009F5750408AF0E1F088234AF0EE0FFF1F53
:102CB000BB1F661F771F881F91505040A9F79E3F8A
:102CC000510570F0A7CEF7CE5F3FECF3983EDCF3F2
:102CD000869577956795B795F795E7959F5FC1F7C7
:102CE000FE2B880F911D9695879597F908956DD0C5
:102CF00030F072D020F031F49F3F11F41EF490CEEA
:102D00000EF4E095E7FB86CEE92FB2DE80F3BA172A
:102D1000620773078407950718F071F49EF5CACE11
:102D20000EF4E0950B2EBA2FA02D0B01B9019001E6
:102D30000C01CA01A0011124FF27591B99F0593F2A
:102D400050F4503E68F11A16F040A22F232F342F72
:102D50004427585FF3CF469537952795A795F040C0
:102D60005395C9F77EF41F16BA0B620B730B840BD5
:102D7000BAF09150A1F0FF0FBB1F661F771F881F8D
:102D8000C2F70EC0BA0F621F731F841F48F48795E5
:102D900077956795B795F7959E3F08F0B3CF9395D4
:102DA000880F08F09927EE0F9795879508959F3F14
:102DB00031F0915020F4879577956795B795880FF6
:102DC000911D9695879597F9089500240A941616F3
:102DD000170618060906089500240A941216130609
:102DE000140605060895092E0394000C11F4882397
:102DF00052F0BB0F40F4BF2B11F460FF04C06F5FB3
:0C2E00007F4F8F4F9F4F0895F894FFCF35
:102E0C00F401F4010100FFFF64000100010009005E
:102E1C000000000000000000010202030303030491
:102E2C00040404040404040505050505050505054D
:102E3C00050505050505050606060606060606062D
:102E4C000606060606060606060606060606060616
:102E5C0006060606060606070707070707070707FD
:102E6C0007070707070707070707070707070707E6
:102E7C0007070707070707070707070707070707D6
:102E8C0007070707070707070707070707070707C6
:102E9C0007070707070707080808080808080808AD
:102EAC000808080808080808080808080808080896
:102EBC000808080808080808080808080808080886
:102ECC000808080808080808080808080808080876
:102EDC000808080808080808080808080808080866
:102EEC000808080808080808080808080808080856
:102EFC000808080808080808080808080808080846
:102F0C000808080808080808080808080808080835
:082F1C00080808080808080075
:00000001FF
